:100000000C942A000C943C000C943C000C943C0092
:100010000C943C000C943C000C943C000C943C0070
:100020000C943C000C943C000C943C000C943C0060
:100030000C943C000C943C000C943C000C943C0050
:100040000C943C000C943C000C943C000C943C0040
:100050000C943C0011241FBECFE5D8E0DEBFCDBF1D
:1000600020E0A0E6B0E001C01D92A037B207E1F7A2
:100070000E943E000C94AD000C94000084B7806890
:1000800084BF84B7806884BF8FEF8ABB17BA14BA65
:1000900011BAE1E6F0E040E750E01192E417F5070D
:1000A000E1F7E0E6F0E010828FE08683C0E0D0E088
:1000B0007F0166B3E0B313B3212F217030E012FF4C
:1000C00009C0E0B3E295EF70F0E0E05AFF4F8081A5
:1000D0008BBB3BC013FF06C0F7011192E417F50775
:1000E000E1F733C070E0F0E0EF70F078E05AFF4FD6
:1000F000E081EF70CB0195958795959587959595BE
:10010000879595958795DC01A05ABF4F8C91F0E1BA
:100110008F9FC00111248E2B90788BBBCD2BA9F41F
:100120002130310591F411FF10C06F707078FB0120
:10013000E05AFF4F812F90E095958795959587958B
:100140009595879595958795808383EC99E00197A0
:0E015000F1F700C00000E901ACCFF894FFCF3A
:00000001FF
