S0100000444154415F4D454D2E73726563BC
S11300000C942A000C943C000C943C000C943C008E
S11300100C943C000C943C000C943C000C943C006C
S11300200C943C000C943C000C943C000C943C005C
S11300300C943C000C943C000C943C000C943C004C
S11300400C943C000C943C000C943C000C943C003C
S11300500C943C0011241FBECFE5D8E0DEBFCDBF19
S113006020E0A0E6B0E001C01D92A037B207E1F79E
S11300700E943E000C947C000C94000084B78068BD
S113008084BF84B7806884BF8FEF8ABB17BA14BA61
S11300908FE081BBE0E6F0E080E790E01192E817A2
S11300A0F907E1F7E0E0F0E036B3832F8F7090E0DA
S11300B060B366FB442740F950E0DC01A05ABF4F0F
S11300C02C912F7022BBEF2B79F44130510561F450
S11300D064FF0AC0FD01232F30E0329522952F7072
S11300E023273F702327208383EC99E00197F1F7BE
S10F00F000C00000FA01D8CFF894FFCF44
S9030000FC
