:100000000C942A000C943F000C943F000C943F0089
:100010000C943F000C943F000C943F000C943F0064
:100020000C943F000C943F000C943F000C943F0054
:100030000C943F000C943F000C943F000C943F0044
:100040000C943F000C943F000C943F000C943F0034
:100050000C943F0011241FBECFE5D8E0DEBFCDBF1A
:1000600012E0A0E6B0E0EAEFF0E002C005900D92E9
:10007000A036B107D9F70E9441000C947B000C9484
:1000800000008FEF8ABB17BA84BB81BB84B780683E
:1000900084BF84B7806884BFE6B3F0E0EE0FFF1F33
:1000A000E05AFF4F80818BBB818185BB30E081E0CE
:1000B00090E050E040E070E860E008C0332311F0C9
:1000C000362F01C0372F32BB852F942FE3ECF9E098
:1000D0003197F1F700C00000E6B3F0E0EE0FFF1F2C
:1000E000E05AFF4F20812BBB218125BB019684362E
:0A00F000910561F7E3CFF894FFCF0C
:1000FA002340354031923491524423E322B2416481
:10010A004152300241242234417253A1000210E6C6
:10011A00616630E6616615C16146103636F37233A0
:10012A0070E661666146303633D361463036300256
:10013A0031111361F000009000000000000000007F
:10014A0000000000000000000000000000000000A5
:10015A000000000000000000000000000000000095
:10016A000000000000000000000000000000000085
:10017A000000000000000000000000000000000075
:10018A000000000000000000000000000000000065
:10019A000000000000000000000000000000000055
:1001AA000000000000000000000000000000000045
:1001BA000000000000000000000000000000000035
:1001CA000000000000000000000000000000000025
:1001DA000000000000000000000000000000000015
:1001EA000000000000000000000000000000000005
:1001FA0000000000000000000000000000000000F5
:10020A0000000000000000000000000000000000E4
:10021A0000000000000000000000000000000000D4
:10022A0000000000000000000000000000000000C4
:10023A0000000000000000000000000000000000B4
:10024A0000000000000000000000000000000000A4
:10025A000000000000000000000000000000000094
:10026A000000000000000000000000000000000084
:10027A000000000000000000000000000000000074
:10028A000000000000000000000000000000000064
:10029A000000000000000000000000000000000054
:1002AA000000000000000000000000000000000044
:1002BA000000000000000000000000000000000034
:1002CA000000000000000000000000000000000024
:1002DA000000000000000000000000000000000014
:1002EA000000000000000000000000000000000004
:00000001FF
