:100000000C942A000C943C000C943C000C943C0092
:100010000C943C000C943C000C943C000C943C0070
:100020000C943C000C943C000C943C000C943C0060
:100030000C943C000C943C000C943C000C943C0050
:100040000C943C000C943C000C943C000C943C0040
:100050000C943C0011241FBECFE5D8E0DEBFCDBF1D
:1000600020E0A0E6B0E001C01D92A036B207E1F7A3
:100070000E943E000C940A010C94000084B7806832
:1000800084BF84B7806884BF8FEF8ABB17BA14BA65
:1000900011BA91E09BBB88BB8FE082BB85BBE0E0DF
:1000A000F0E0D0E0A12C0F2EFFE0BF2EF02DB1E04C
:1000B000A0E010B3C12FCF70EC2EF12C96B39F703F
:1000C000292F30E086B382958F70C82ED12C00B3D3
:1000D00004FB442740F950E005FB662760F970E017
:1000E00009E0E016F10441F00DEF0C0F023020F0B2
:1000F0000EE0E016F10469F4C9018C0D9D1D8F70AE
:100100009078992324F40197806F9F6F0196FC01EA
:100110005BC008E0E016F10441F00BEF0C0F023079
:1001200020F0C1E0EC16F10471F4C9018C199D09AD
:1001300040968F709078992324F40197806F9F6F79
:100140000196FC0141C0012F0770073021F498236C
:10015000E92FF0E039C00AE0E016F10421F0CCE02C
:10016000EC16F10421F4982BE92FF0E02DC00DE0FE
:10017000E016F10429F4982B9B25E92FF0E024C028
:100180009BE0E916F10489F4F90102C0EE0FFF1FAC
:100190008A95E2F7CF018F709078992324F4019724
:1001A000806F9F6F0196FC010FC002E0E016F10422
:1001B00039F4F90102C0F595E7958A95E2F704C094
:1001C000EF2811F4ED2FFA2D3B2F2A2FCF018F703E
:1001D0009927892B11F03D2F2A2D832F922F2B2F1A
:1001E0003A2F009711F02D2F3A2D26233723842301
:1001F0009523822B932B82959295907F9827807FD1
:1002000098278E2B8BBB83EC99E00197F1F700C008
:0802100000004FCFF894FFCF6E
:00000001FF
